:060000000A128A110C280F
:10000800FE00030EF1000A08F2000A128A11F62B0C
:100018000A128A110F288313E130FD000330FE0015
:10002800C830FF00C83084000A128A110F240A124F
:100038008A116430FD000330FE00E130FF004F30CC
:1000480084000A128A110F240A128A110A128A11CC
:1000580027240A128A11FA00831790308400B830D6
:100068000A128A111C240A128A118313A0308400F0
:10007800C8300A128A111C240A128A1120308400FE
:100088004F300A128A111C24F90183010A128A11BD
:10009800EF294D304402031CCC29C401C3143B088A
:1000A8003D06031D59283A083C060319CC290610B9
:1000B80086100611C2010030F5008030F600420AB1
:1000C80068280310F60CF50CFF3E031D65283C0854
:1000D8007505F7003D087605F800770878040319D8
:1000E8007728861478288610061406100130F50043
:1000F8007508C20710304202031C5F280615061156
:100108003D08BB003C08BA00CC29831607108312AF
:1001180007108F018E01B601B701A401A501E50101
:10012800E6014530F5007508E400023041297530D4
:100138000F02313003190E02031CCC290714831651
:10014800071483128F018E010330412941083F06AD
:10015800031DB02840083E060319C4283E083F0482
:100168000319B9288F018E01CC2900300F026530A0
:1001780003190E02031CCC298F018E01043041297A
:1001880001300F02F53003190E02031CCC2914307C
:10019800F3008030F4000A128A11A6230A128A1189
:1001A8000630412941083F06031DDC2840083E0669
:1001B800031945293E083F04031DB62800300F02E5
:1001C800153003190E02031C092900300F023230C2
:1001D80003190E0203180929650AF5008030F60094
:1001E8000030F700FA28770DF70CF60CF50BF72816
:1001F800F609F70983120313640884007608831349
:100208008005840A770880051F29650AF500803073
:10021800F6000030F7001329770DF70CF60CF50BF4
:10022800102983120313640884007608831380045A
:10023800840A770880040130E5070318E60A0030CD
:10024800E60700306602083003196502031CCC2952
:10025800E501E6010130A4070318A50A0030A50747
:100268000030250205300319240203184029023002
:10027800F5007508E407CC290530F5007508CF00AE
:10028800CC2901300F02F53003190E02031CCC29CA
:100298003E083F040319CC292130CC28B601B70108
:1002A80049084707F5004A0803184A0A4807F600AC
:1002B8004B087507F7004C0803184C0A7607F80036
:1002C80045087707B60046080318460A7807B700B6
:1002D800FF303605B60000303705B70037084E0640
:1002E800031D782936084D06031DBF294608B500A9
:1002F8004508B40008300310B40DB50DFF3E031DCA
:100308007F294708B4044808B5043508AB00340809
:10031800AA00AA01AB014A08AF004908AE0008309C
:100328000310AE0DAF0DFF3E031D94294B08AE041C
:100338004C08AF0480302F02013003192E02031C31
:10034800B3298030AF022E09F5002F09F600F50A0F
:100358000319F60A7508AC007608AD00B7292F080E
:10036800AD002E08AC00A801A90143140630F50021
:100378007508CF00D4280130F3008030F4000A1249
:100388008A11A6230A128A11BA29C310CF01CF0AEB
:10039800C31C08003F08C1003E08C0000708013917
:1003A800F500F6017508BE007608BF004F08013A4F
:1003B80003198928033A03199B28013A0319AA2823
:1003C800073A0319D628013A03195229033A03199F
:1003D800C929CC29CC290A128A113B230A128A116D
:1003E8000A128A1124240A128A110A128A114D202B
:1003F8000A128A11431CF9290A30E7000030E80084
:100408006430F3000030F4003508F6003408F500D5
:100418000A128A11FF220A128A117408EA00730864
:10042800E9000A128A1174230A128A116708303EF9
:10043800EC006C08DB000A30E7000030E8000A3006
:10044800F3000030F4003508F6003408F5000A120D
:100458008A11FF220A128A117408EA007308E90057
:100468000A128A1174230A128A116708303EEC00B6
:100478006C08DC000A30E7000030E8003508EA00C4
:100488003408E9000A128A1174230A128A116708CB
:10049800303EEC006C08DE005030F3000030F40011
:1004A8000A128A11A6230A128A11AD1F5D2A2D305D
:1004B8005E2A2030EC006C088316D1000A308312C3
:1004C800E7000030E8006430F3000030F4002F0843
:1004D800F6002E08F5000A128A11FF220A128A1164
:1004E8007408EA007308E9000A128A1174230A12D0
:1004F8008A116708303EEC006C088316D2000A3077
:100508008312E7000030E8000A30F3000030F400FE
:100518002F08F6002E08F5000A128A11FF220A1287
:100528008A117408EA007308E9000A128A11742310
:100538000A128A116708303EEC006C088316D30053
:100548000A308312E7000030E8002F08EA002E087E
:10055800E9000A128A1174230A128A116708303EC8
:10056800EC006C088316D500C830F3000030F400A6
:100578000A128A11A6230A128A114310F929FF1BAD
:10058800CD2A83137F1883170008840A0319FF0AEA
:10059800080002308A000408840A820700342034E4
:1005A80043346834653463346B34533475346D3490
:1005B80020344534723472346F3472342134203428
:1005C8000D34003454346534733474342034463470
:1005D800613469346C3421340D342034003454349B
:1005E80069346D34653420346F347534743421348F
:1005F8000D3420340034E501E6017308740403194E
:10060800362BE401E40AF41B152B01300310F30D1B
:10061800F40DFF3E031D0A2B0130F7007708E407AD
:10062800072B01300310E50DE60DFF3E031D162BC9
:1006380074087602031D222B73087502031C2B2BEA
:100648007308F5027408031CF603F60265140130FA
:100658000310F40CF30CFF3E031D2C2B0130E402B5
:10066800031D152B6608F4006508F30008008B13BA
:100678008316061086100611071307118312061039
:1006880086100611BC01BD018316071083120714DA
:100698008316811281110114811401158312981790
:1006A80018138316981718139816181218159814F3
:1006B8001F3099008B170B178B160B110C10831218
:1006C8000C1081011010101290169011101190103A
:1006D8008E018F01101483160C1083128C100800E1
:1006E800670868040319A12BEB01EB0AE81B882BA8
:1006F80001300310E70DE80DFF3E031D7D2B01308F
:10070800F8007808EB077A2B68086A02031D8E2B1D
:1007180067086902031C962B6708E9026808031C2E
:10072800EA03EA0201300310E80CE70CFF3E031D60
:10073800972B0130EB02031D882B6A08E800690833
:10074800E700080074088312FF00730884000A1287
:100758008A11C3220A128A11003A03190800831663
:10076800981CA62B74088312FF00730884000A12D1
:100778008A11C3220A128A1199000130F30703185B
:10078800F40A0030F407A62B533469346334613417
:100798006B346C3469346B343A342034303430344C
:1007A8002E34303420346F34433420340D34003444
:1007B8000034003400340034003401344E346534DD
:1007C8006D343A3420342034203420342034253415
:1007D8002034303430342E34303420340D34003466
:1007E800003400348B1A0B1D042C4D308312031374
:1007F80044020318032C0130F0007008C4070B11E1
:1008080072088A00710E8300FE0E7E0E09007E08B3
:100818008A007F0882000B240A128A118000840A49
:1008280004087D0603190034FF0A0319FE0A0F2C79
:1008380064008001840A04060319003404061D2C90
:08084800C31443100800A034A2
:02400E00FA3D79
:00000001FF
