:060000000A128A110C280F
:10000800FE00030EF1000A08F2000A128A11DC2B26
:100018000A128A110F288313E130FD000330FE0015
:10002800AE30FF00C83084000A128A11F5230A1284
:100038008A115E30FD000330FE00C730FF004930F2
:1000480084000A128A11F5230A128A110A128A11E7
:100058000D240A128A11FA00831790308400B830F0
:100068000A128A1102240A128A118313A03084000A
:10007800C8300A128A1102240A128A112030840018
:1000880049300A128A110224F90183010A128A11DD
:10009800CE294D303E02031CAB29BE01BD143508E4
:1000A8003706031D5928340836060319AB290610EC
:1000B80086100611BC010030F5008030F6003C0ABD
:1000C80068280310F60CF50CFF3E031D652836085A
:1000D8007505F70037087605F800770878040319DE
:1000E8007728861478288610061406100130F50043
:1000F8007508BC0710303C02031C5F280615061162
:100108003708B5003608B400AB29831607108312E8
:1001180007108F018E01B001B101A401A501DF0113
:10012800E0013F30F5007508DE00023041297530E6
:100138000F02313003190E02031CAB290714831672
:10014800071483128F018E01033041293B083906B9
:10015800031DB0283A0838060319C428380839049A
:100168000319B9288F018E01AB2900300F026530C1
:1001780003190E02031CAB298F018E01043041299B
:1001880001300F02F53003190E02031CAB2914309D
:10019800F3008030F4000A128A118C230A128A11A3
:1001A800063041293B083906031DDC283A08380681
:1001B8000319452938083904031DB62800300F02F1
:1001C800153003190E02031C092900300F023230C2
:1001D80003190E02031809295F0AF5008030F6009A
:1001E8000030F700FA28770DF70CF60CF50BF72816
:1001F800F609F709831203135E088400760883134F
:100208008005840A770880051F295F0AF500803079
:10021800F6000030F7001329770DF70CF60CF50BF4
:100228001029831203135E08840076088313800460
:10023800840A770880040130DF070318E00A0030D9
:10024800E00700306002083003195F02031CAB2985
:10025800DF01E0010130A4070318A50A0030A50753
:100268000030250205300319240203184029023002
:10027800F5007508DE07AB290530F5007508C900DB
:10028800AB2901300F02F53003190E02031CAB290C
:10029800380839040319AB292130CC28B001B10141
:1002A80043084107F50044080318440A4207F600CA
:1002B80045087507F70046080318460A7607F80048
:1002C8003F087707B00040080318400A7807B100D4
:1002D800FF303005B00000303105B1003108480664
:1002E800031D782930084706031D9A294008AF00E6
:1002F8003F08AE0008300310AE0DAF0DFF3E031DE2
:100308007F294108AE044208AF044408A900430805
:10031800A80008300310A80DA90DFF3E031D8E2963
:100328004508A8044608A9043D14A3290130F30090
:100338008030F4000A128A118C230A128A110630BE
:10034800F5007508C900D428BD10C901C90ABD1C2B
:1003580008003908BB003808BA0007080139F50059
:10036800F6017508B8007608B9004908013A03197A
:100378008928033A03199B28013A0319AA28073A3E
:100388000319D628013A03195229033A0319A8294F
:10039800AB29AB290A128A1121230A128A110A12DF
:1003A8008A110A240A128A110A128A114D200A1285
:1003B8008A113D1CD8290A30E1000030E20064307F
:1003C800F3000030F4002F08F6002E08F5000A129A
:1003D8008A11E5220A128A117408E4007308E300FE
:1003E8000A128A115A230A128A116108303EE6005D
:1003F8006608D5000A30E1000030E2000A30F30058
:100408000030F4002F08F6002E08F5000A128A11B1
:10041800E5220A128A117408E4007308E3000A123C
:100428008A115A230A128A116108303EE6006608CA
:10043800D6000A30E1000030E2002F08E4002E0860
:10044800E3000A128A115A230A128A116108303EFF
:10045800E6006608D8004A30F3000030F4000A12BB
:100468008A118C230A128A1180302902013003195B
:100478002802031C432A8030A9022D30442A203048
:10048800E60066088316D1000A308312E1000030C6
:10049800E2006430F3000030F4002908F600280870
:1004A800F5000A128A11E5220A128A117408E4007A
:1004B8007308E3000A128A115A230A128A11610882
:1004C800303EE60066088316D2000A308312E10047
:1004D8000030E2000A30F3000030F4002908F6008A
:1004E8002808F5000A128A11E5220A128A117408EE
:1004F800E4007308E3000A128A115A230A128A11C7
:100508006108303EE60066088316D3000A3083127D
:10051800E1000030E2002908E4002808E3000A129C
:100528008A115A230A128A116108303EE6006608C9
:100538008316D500C830F3000030F4000A128A117F
:100548008C230A128A113D10D829FF1BB32A831362
:100558007F1883170008840A0319FF0A080002306D
:100568008A000408840A820700342034433468343B
:10057800653463346B34533475346D342034453406
:10058800723472346F347234213420340D340034B0
:1005980054346534733474342034463461346934E3
:1005A8006C3421340D3420340034543469346D34BF
:1005B800653420346F347534743421340D34203468
:1005C8000034DF01E0017308740403191C2BDE01F9
:1005D800DE0AF41BFB2A01300310F30DF40DFF3E75
:1005E800031DF02A0130F7007708DE07ED2A0130F5
:1005F8000310DF0DE00DFF3E031DFC2A7408760290
:10060800031D082B73087502031C112B7308F502D0
:100618007408031CF603F6025F1401300310F40C8F
:10062800F30CFF3E031D122B0130DE02031DFB2AD3
:100638006008F4005F08F30008008B1383160610A7
:10064800861006110713071183120610861006116B
:10065800B601B70183160710831207148316811297
:100668008111011481140115831298171813831628
:100678009817181398161812181598141F309900FF
:100688008B170B178B160B110C1083120C10810192
:100698001010101290169011101190108E018F01E9
:1006A800101483160C1083128C1008006108620461
:1006B8000319872BE501E50AE21B6E2B01300310B5
:1006C800E10DE20DFF3E031D632B0130F8007808B1
:1006D800E507602B62086402031D742B610863023E
:1006E800031C7C2B6108E3026208031CE403E40298
:1006F80001300310E20CE10CFF3E031D7D2B01309D
:10070800E502031D6E2B6408E2006308E10008009F
:1007180074088312FF00730884000A128A11A92240
:100728000A128A11003A031908008316981C8C2BA8
:1007380074088312FF00730884000A128A11A92220
:100748000A128A1199000130F3070318F40A0030DD
:10075800F4078C2B53346934633461346B346C3450
:1007680069346B343A342034303430342E343034F5
:1007780020346F34433420340D34003400340034D2
:1007880000340034003401344E3465346D343A3466
:10079800203420342034203420342534203430349C
:1007A80030342E34303420340D34003400340034E6
:1007B8008B1A0B1DEA2B4D30831203133E020318CC
:1007C800E92B0130F0007008BE070B1172088A008F
:1007D800710E8300FE0E7E0E09007E088A007F08D7
:1007E8008200F1230A128A118000840A04087D0617
:1007F80003190034FF0A0319FE0AF52B640080016F
:10080800840A0406031900340406032CBD143D10A1
:040818000800A03400
:02400E00FA3D79
:00000001FF
